:020000040000FA
:0400000024EF0AF0EF
:101000000063757272656E7420737065656420206C
:1010100020002020202020202020202020202020F0
:1010200020310020202020202020202020202020CF
:1010300020203200202020202020202020202020BE
:1010400020202033002020202020202020202020AD
:10105000202020203400202020202020202020209C
:101060002020202020350000010EC26E0B0EC16E24
:10107000010EC06EC30E926E3F0E936E010E946E03
:10108000000E956E000E966E80EC09F0010E1BECC2
:101090000AF0000E136E000E176E010E166E000E93
:1010A000156E000E146E000E186E13C083FF010E35
:1010B0004CEC09F001C008F002C009F0000E0B6E04
:1010C0000A0E0A6EAEEC09F008C019F009C01AF059
:1010D0001A500CE1150E195CD8B008D0070E026E3C
:1010E000D00E016EF9EC09F0010E49D01A5004E15E
:1010F000150E195CD8A00ED01A500CE1290E195CFF
:10110000D8B008D0060E026E400E016EF9EC09F060
:10111000020E35D01A5004E1290E195CD8A00ED069
:101120001A500CE13D0E195CD8B008D0040E026EC6
:10113000B00E016EF9EC09F0030E21D01A5004E153
:101140003D0E195CD8A00ED01A500CE1510E195C5E
:10115000D8B008D0030E026E200E016EF9EC09F033
:10116000040E0DD01A5004E1510E195CD8A008D01D
:10117000010E026EF40E016EF9EC09F0050E186E08
:10118000010E1BEC0AF0800E1BEC0AF0010E036E40
:10119000100E046ED7EC09F0C00E1BEC0AF0180418
:1011A000D8A407D0120E036E100E046ED7EC09F00F
:1011B0002BD0020E1818D8A407D0230E036E100EE1
:1011C000046ED7EC09F020D0030E1818D8A407D06D
:1011D000340E036E100E046ED7EC09F015D0040E19
:1011E0001818D8A407D0450E036E100E046ED7EC65
:1011F00009F00AD0050E1818D8A406D0560E036EB2
:10120000100E046ED7EC09F0170E126E700E116EF0
:1012100003D01106D8A0120681B881A604D01150BF
:101220001210D8A4F6D781B60CD0164A172A175038
:1012300004E1030E165CD8A01FD0000E176E010E3D
:101240000CD081B819D01606D8A017061650171062
:10125000D8A412D0000E176E020E166E0DD01450C8
:1012600029EC0AF0136E144A152A1FD714C013F084
:101270001406D8A0150619D716C00FF017C010F025
:101280001050000AD8A411D70F50010AD8B4E7D7DC
:10129000030AD8B4EBD709D7076E07D0010E03D0E5
:1012A000050E01D0090EC26E11D00750036E046AFC
:1012B0000450000AD8A40AD00350000AD8B4EED7CC
:1012C000010AD8B4EDD7030AD8B4ECD7C282C2B2AF
:1012D000FED7C3CF03F0060E046ED8900332042E5F
:1012E000FCD70350C4CF05F0066AD8900536063601
:1012F000D890053606360510016E0650026E1200B3
:1013000084928494000E026E140E016EF9EC09F0C2
:101310008482380E1BEC0AF0000E026E050E016E80
:10132000F9EC09F0380E1BEC0AF0000E026E010E0B
:10133000016EF9EC09F0380E1BEC0AF0080E1BECFC
:101340000AF00F0E1BEC0AF0010E1BEC0AF0380E2F
:101350001BEC0AF0800E1BEC0AF01200000E0D6E62
:10136000000E0C6E0A500B10D8B41CD0010E0E6E7D
:1013700004D0D8900A360B360E2A0BAEFAD7D89086
:101380000C360D360A50085C0B500958D8A005D011
:101390000A50085E0B50095A0C80D8900B320A3262
:1013A0000E2EEDD70CC008F00DC009F01200000E93
:1013B000076E0FD007500324056E000E0420066E42
:1013C00005C0F6FF06C0F7FF0800F55012EC0AF062
:1013D000072A07500324056E000E0420066E05C080
:1013E000F6FF06C0F7FF0800F5500009D8B4120058
:1013F000E1D7000E046E000E036E0DD0000E056ED8
:1014000000F000F000F000F000F0052AC70E0564BF
:10141000F7D7034A042A0150035C02500458D8B09D
:101420001200ECD7026E848202502EEC0AF0848403
:10143000849284821200026E848202502EEC0AF0A2
:101440008494849284821200000EF86E000134EFBE
:1014500008F0016ED890013001181200016E01C031
:0414600083FF1200F4
:020000040020DA
:08000000FFFFFFFFFFFFFFFF00
:020000040030CA
:0E000000FF06181EFF8180FF0FC00FE00F40AB
:00000001FF
