:020000040000FA
:04000000A3EF0CF06E
:101000000021212020477261637A20203120202195
:10101000210021212020477261637A202032202084
:10102000212100212121202057796772616C202025
:1010300021212100202020303A30307C7C202020CB
:10104000303A303000477261637A20317C7C4772DD
:0710500061637A2032000009
:10105800010EC26E0B0EC16E010EC06EC30E926EF3
:101068003F0E936E010E946E000E956E000E966EF6
:10107800FFEC0BF0010E9AEC0CF0450E116E100E01
:10108800126E340E186E100E196E310E136E000E9D
:10109800166E1604D8A407D0030E026EE80E016E71
:1010A80078EC0CF006D0000E026EC80E016E78ECDB
:1010B8000CF081B602D0310E136E81BA02D0320E16
:1010C800136E81B402D0010E166E81B252D0030E97
:1010D80018240F6E000E1920106E0FC0F6FF10C0F6
:1010E800F7FF300EF56E0C00050E18240F6E000E7B
:1010F8001920106E0FC0F6FF10C0F7FF300EF56E06
:101108000C00060E18240F6E000E1920106E0FC06A
:10111800F6FF10C0F7FF300EF56E0C000C0E182409
:101128000F6E000E1920106E0FC0F6FF10C0F7FFEB
:10113800300EF56E0C000E0E18240F6E000E1920DE
:10114800106E0FC0F6FF10C0F7FF300EF56E0C00E2
:101158000F0E18240F6E000E1920106E0FC0F6FF28
:1011680010C0F7FF300EF56E0C00310E136E000E36
:10117800166E1650D8A48AD0010E9AEC0CF0800E88
:101188009AEC0CF011C003F012C004F056EC0CF00D
:10119800C00E9AEC0CF018C003F019C004F056EC1D
:1011A8000CF0010ECBEC0BF001C008F002C009F006
:1011B800000E0B6E0A0E0A6E2DEC0CF008C014F02F
:1011C80009C015F015501DE1220E145CD8B019D0D5
:1011D800030E18240F6E000E1920106E0FC0F6FFB4
:1011E80010C0F7FF350EF56E0C000C0E18240F6EAC
:1011F800000E1920106E0FC0F6FF10C0F7FF350E55
:1012080043D0155004E1220E145CD8A01FD015500D
:101218001DE1430E145CD8B019D0030E18240F6ECC
:10122800000E1920106E0FC0F6FF10C0F7FF330E26
:10123800F56E0C000C0E18240F6E000E1920106E9F
:101248000FC0F6FF10C0F7FF330E1ED0155004E193
:10125800430E145CD8A01AD0030E18240F6E000E8B
:101268001920106E0FC0F6FF10C0F7FF310EF56E93
:101278000C000C0E18240F6E000E1920106E0FC0F3
:10128800F6FF10C0F7FF310EF56E0C001604D8A457
:101298004BD2010E9AEC0CF0800E9AEC0CF011C0B7
:1012A80003F012C004F056EC0CF0C00E9AEC0CF0EF
:1012B80018C003F019C004F056EC0CF0030E182403
:1012C8000F6E000E1920106E0FC0F6FF10C0F7FF4A
:1012D8000800F550300AD8A420D0050E18240F6E47
:1012E800000E1920106E0FC0F6FF10C0F7FF08009F
:1012F800F550300AD8A411D0060E18240F6E000E2F
:101308001920106E0FC0F6FF10C0F7FF0800F55047
:10131800300AD8A402D0020E166E0C0E18240F6ED6
:10132800000E1920106E0FC0F6FF10C0F7FF08005E
:10133800F550300AD8A420D00E0E18240F6E000ED7
:101348001920106E0FC0F6FF10C0F7FF0800F55007
:10135800300AD8A411D00F0E18240F6E000E1920D1
:10136800106E0FC0F6FF10C0F7FF0800F550300AE6
:10137800D8A402D0030E166E310E1318D8A4E8D0E4
:10138800060E18240F6E000E1920106E0FC0F6FFFF
:1013980010C0F7FF0800F5CF17F01706060E18243F
:1013A8000F6E000E1920106E0FC0F6FF10C0F7FF69
:1013B80017C0F5FF0C00060E18240F6E000E19203A
:1013C800106E0FC0F6FF10C0F7FF300E0800F56072
:1013D80028D0050E18240F6E000E1920106E0FC0AD
:1013E800F6FF10C0F7FF0800F5CF17F01706050E37
:1013F80018240F6E000E1920106E0FC0F6FF10C0D3
:10140800F7FF17C0F5FF0C00060E18240F6E000E2C
:101418001920106E0FC0F6FF10C0F7FF390EF56ED9
:101428000C00060E18240F6E000E1920106E0FC047
:10143800F6FF10C0F7FF300E0800F56037D0030E36
:1014480018240F6E000E1920106E0FC0F6FF10C082
:10145800F7FF0800F550300AD8B428D0050E182434
:101468000F6E000E1920106E0FC0F6FF10C0F7FFA8
:101478000800F5CF17F01706050E18240F6E000E9A
:101488001920106E0FC0F6FF10C0F7FF17C0F5FF48
:101498000C00060E18240F6E000E1920106E0FC0D7
:1014A800F6FF10C0F7FF390EF56E0C00050E182474
:1014B8000F6E000E1920106E0FC0F6FF10C0F7FF58
:1014C800300E0800F56044D0030E18240F6E000E8D
:1014D8001920106E0FC0F6FF10C0F7FF0800F55076
:1014E800300AD8B435D0030E18240F6E000E192018
:1014F800106E0FC0F6FF10C0F7FF0800F5CF17F009
:101508001706030E18240F6E000E1920106E0FC058
:10151800F6FF10C0F7FF17C0F5FF0C00050E1824E2
:101528000F6E000E1920106E0FC0F6FF10C0F7FFE7
:10153800350EF56E0C00060E18240F6E000E1920DD
:10154800106E0FC0F6FF10C0F7FF390EF56E0C00D5
:10155800320E1318D8A4E8D00F0E18240F6E000E00
:101568001920106E0FC0F6FF10C0F7FF0800F5CF66
:1015780017F017060F0E18240F6E000E1920106EA4
:101588000FC0F6FF10C0F7FF17C0F5FF0C000F0ED5
:1015980018240F6E000E1920106E0FC0F6FF10C031
:1015A800F7FF300E0800F56028D00E0E18240F6ED5
:1015B800000E1920106E0FC0F6FF10C0F7FF0800CC
:1015C800F5CF17F017060E0E18240F6E000E19200F
:1015D800106E0FC0F6FF10C0F7FF17C0F5FF0C0024
:1015E8000F0E18240F6E000E1920106E0FC0F6FF94
:1015F80010C0F7FF390EF56E0C000F0E18240F6E91
:10160800000E1920106E0FC0F6FF10C0F7FF300E45
:101618000800F56037D00C0E18240F6E000E192044
:10162800106E0FC0F6FF10C0F7FF0800F550300A23
:10163800D8B428D00C0E18240F6E000E1920106E86
:101648000FC0F6FF10C0F7FF0800F5CF17F0170618
:101658000E0E18240F6E000E1920106E0FC0F6FF24
:1016680010C0F7FF17C0F5FF0C000F0E18240F6EFF
:10167800000E1920106E0FC0F6FF10C0F7FF390ECC
:10168800F56E0C000E0E18240F6E000E1920106E49
:101698000FC0F6FF10C0F7FF300E0800F56044D009
:1016A8000C0E18240F6E000E1920106E0FC0F6FFD6
:1016B80010C0F7FF0800F550300AD8B435D00C0E2A
:1016C80018240F6E000E1920106E0FC0F6FF10C000
:1016D800F7FF0800F5CF17F017060C0E18240F6E49
:1016E800000E1920106E0FC0F6FF10C0F7FF17C0CC
:1016F800F5FF0C000E0E18240F6E000E1920106E48
:101708000FC0F6FF10C0F7FF350EF56E0C000F0E78
:1017180018240F6E000E1920106E0FC0F6FF10C0AF
:10172800F7FF390EF56E0C00020E1618D8A415D066
:10173800010E9AEC0CF0800E9AEC0CF0230E036E5E
:10174800100E046E56EC0CF0C00E9AEC0CF0120E53
:10175800036E100E046E56EC0CF0030E1618D8A487
:1017680098D4010E9AEC0CF0800E9AEC0CF0230E33
:10177800036E100E046E56EC0CF0C00E9AEC0CF0D2
:10178800010E036E100E046E56EC0CF082D4076E38
:1017980007D0010E03D0050E01D0090EC26E11D07C
:1017A8000750036E046A0450000AD8A40AD00350F4
:1017B800000AD8B4EED7010AD8B4EDD7030AD8B4D2
:1017C800ECD7C282C2B2FED7C3CF03F0060E046EB6
:1017D800D8900332042EFCD70350C4CF05F0066A14
:1017E800D89005360636D890053606360510016EAF
:1017F8000650026E120084928494000E026E140E3B
:10180800016E78EC0CF08482380E9AEC0CF0000E25
:10181800026E050E016E78EC0CF0380E9AEC0CF0A6
:10182800000E026E010E016E78EC0CF0380E9AEC88
:101838000CF0080E9AEC0CF00F0E9AEC0CF0010E5E
:101848009AEC0CF0380E9AEC0CF0800E9AEC0CF036
:101858001200000E0D6E000E0C6E0A500B10D8B45C
:101868001CD0010E0E6E04D0D8900A360B360E2A04
:101878000BAEFAD7D8900C360D360A50085C0B50D0
:101888000958D8A005D00A50085E0B50095A0C8098
:10189800D8900B320A320E2EEDD70CC008F00DC0CE
:1018A80009F01200000E076E0FD007500324056ED2
:1018B800000E0420066E05C0F6FF06C0F7FF0800FC
:1018C800F55091EC0CF0072A07500324056E000E22
:1018D8000420066E05C0F6FF06C0F7FF0800F550A5
:1018E8000009D8B41200E1D7000E046E000E036E92
:1018F8000DD0000E056E00F000F000F000F000F0D2
:10190800052AC70E0564F7D7034A042A0150035C69
:1019180002500458D8B01200ECD7026E84820250EC
:10192800A8EC0CF08484849284821200026E848273
:101938000250A8EC0CF08494849284821200000E69
:10194800F86E00012CEF08F0016E01C083FF120051
:020000040020DA
:08000000FFFFFFFFFFFFFFFF00
:020000040030CA
:0E000000FF06181EFF8180FF0FC00FE00F40AB
:00000001FF
