:020000040000FA
:0400000028EF7FF076
:10FE5000000EF86E0001A3EF7FF0000E046E000E9E
:10FE6000036E0DD0000E056E00F000F000F000F003
:10FE700000F0052AC70E0564F7D7034A042A01508B
:10FE8000035C02500458D8B01200ECD7000E0D6E7F
:10FE9000000E0C6E0A500B10D8B41CD0010E0E6E62
:10FEA00004D0D8900A360B360E2A0BAEFAD7D8906B
:10FEB0000C360D360A50085C0B500958D8A005D0F6
:10FEC0000A50085E0B50095A0C80D8900B320A3247
:10FED0000E2EEDD70CC008F00DC009F01200076E11
:10FEE00007D0010E03D0050E01D0090EC26E11D04D
:10FEF0000750036E046A0450000AD8A40AD00350C5
:10FF0000000AD8B4EED7010AD8B4EDD7030AD8B4A2
:10FF1000ECD7C282C2B2FED7C3CF03F0060E046E86
:10FF2000D8900332042EFCD70350C4CF05F0066AE4
:10FF3000D89005360636D890053606360510016E7F
:10FF40000650026E1200010EC26E0B0EC16E010E43
:10FF5000C06EC30E926E3F0E936E010E946E000E35
:10FF6000956E000E966E000E146E000E0F6E000E53
:10FF7000156E14C083FF170E136E700E126E03D031
:10FF80001206D8A0130681B881A604D0125013100F
:10FF9000D8A4F6D781B602D0000E156E000E6FEC15
:10FFA0007FF001C008F002C009F0000E0B6E0A0ECF
:10FFB0000A6E46EC7FF008C010F009C011F0115035
:10FFC00004E1340E105CD8A008D0000E026EC80EFA
:10FFD000016E2DEC7FF0152A04D0000E156E000E78
:10FFE000146E1A0E156007D015A002D0010E01D0B4
:10FFF000000E146EBED7190E1564BBD71468B9D79E
:020000040020DA
:08000000FFFFFFFFFFFFFFFF00
:020000040030CA
:0E000000FF06181EFF8180FF0FC00FE00F40AB
:00000001FF
