:020000040000FA
:040000001AEF0CF0F7
:101000000020202020202020202020202020202000
:1010100020002121212020474F544F5745202021D7
:101020002121003830305720202020202030306D02
:10103000303073004D6F632020202020202020209E
:10104000437A61730000010EC26E0B0EC16E010E79
:10105000C06EC30E926E3F0E936E010E946E000E24
:10106000956E000E966E010E0C6E000E0D6E340E17
:101070000A6E100E0B6E230E0F6E100E106E9FEC8C
:101080000BF0010E11EC0CF00D04D8A407D0030EE8
:10109000026EE80E016EEFEC0BF006D0010E026E50
:1010A000F40E016EEFEC0BF081B406D00D2A020EA7
:1010B0000D6402D0010E0D6E81B24CD0010E0C6E8B
:1010C0000A0E0F24086E000E1020096E08C0F6FFED
:1010D00009C0F7FF300EF56E0C000B0E0F24086EE2
:1010E000000E1020096E08C0F6FF09C0F7FF300E91
:1010F000F56E0C000D0E0F24086E000E1020096E08
:1011000008C0F6FF09C0F7FF300EF56E0C000E0E9A
:101110000F24086E000E1020096E08C0F6FF09C0EB
:10112000F7FF300EF56E0C000FC0F6FF10C0F7FF92
:10113000380EF56E0C00010E0F24086E000E102004
:10114000096E08C0F6FF09C0F7FF300EF56E0C00FF
:10115000000E0D6E0D04D8A49AD1010E11EC0CF006
:10116000800E11EC0CF00AC003F00BC004F0CDECC3
:101170000BF0C00E11EC0CF00FC003F010C004F027
:10118000CDEC0BF00A0E0F24086E000E1020096E35
:1011900008C0F6FF09C0F7FF0800F550300AD8A4D0
:1011A0002FD00B0E0F24086E000E1020096E08C001
:1011B000F6FF09C0F7FF0800F550300AD8A420D088
:1011C0000D0E0F24086E000E1020096E08C0F6FFE9
:1011D00009C0F7FF0800F550300AD8A411D00E0E50
:1011E0000F24086E000E1020096E08C0F6FF09C01B
:1011F000F7FF0800F550300AD8A402D0030E0D6E98
:101200000E0E0F24086E000E1020096E08C0F6FFA7
:1012100009C0F7FF0800F5CF0EF00E060E0E0F24E2
:10122000086E000E1020096E08C0F6FF09C0F7FF17
:101230000EC0F5FF0C000E0E0F24086E000E1020DD
:10124000096E08C0F6FF09C0F7FF300E0800F56010
:1012500028D00D0E0F24086E000E1020096E08C055
:10126000F6FF09C0F7FF0800F5CF0EF00E060D0ED1
:101270000F24086E000E1020096E08C0F6FF09C08A
:10128000F7FF0EC0F5FF0C000E0E0F24086E000EC7
:101290001020096E08C0F6FF09C0F7FF390EF56E81
:1012A0000C000E0E0F24086E000E1020096E08C0F0
:1012B000F6FF09C0F7FF300E0800F56037D00B0EBF
:1012C0000F24086E000E1020096E08C0F6FF09C03A
:1012D000F7FF0800F550300AD8B428D00D0E0F24BF
:1012E000086E000E1020096E08C0F6FF09C0F7FF57
:1012F0000800F5CF0EF00E060D0E0F24086E000E3E
:101300001020096E08C0F6FF09C0F7FF0EC0F5FFF8
:101310000C000E0E0F24086E000E1020096E08C07F
:10132000F6FF09C0F7FF390EF56E0C000D0E0F2405
:10133000086E000E1020096E08C0F6FF09C0F7FF06
:10134000300E0800F56044D00B0E0F24086E000E1E
:101350001020096E08C0F6FF09C0F7FF0800F5501D
:10136000300AD8B435D00B0E0F24086E000E1020B2
:10137000096E08C0F6FF09C0F7FF0800F5CF0EF0B0
:101380000E060B0E0F24086E000E1020096E08C00A
:10139000F6FF09C0F7FF0EC0F5FF0C000D0E0F247D
:1013A000086E000E1020096E08C0F6FF09C0F7FF96
:1013B000350EF56E0C000E0E0F24086E000E102078
:1013C000096E08C0F6FF09C0F7FF390EF56E0C0074
:1013D0000B0E0F24086E000E1020096E08C0F6FFD9
:1013E00009C0F7FF300E0800F56051D00A0E0F2437
:1013F000086E000E1020096E08C0F6FF09C0F7FF46
:101400000800F550300AD8B442D00A0E0F24086EF6
:10141000000E1020096E08C0F6FF09C0F7FF080093
:10142000F5CF0EF00E060A0E0F24086E000E1020E7
:10143000096E08C0F6FF09C0F7FF0EC0F5FF0C00EB
:101440000B0E0F24086E000E1020096E08C0F6FF68
:1014500009C0F7FF390EF56E0C000D0E0F24086E53
:10146000000E1020096E08C0F6FF09C0F7FF350E08
:10147000F56E0C000E0E0F24086E000E1020096E83
:1014800008C0F6FF09C0F7FF390EF56E0C000D50CD
:10149000D8A422D1010E11EC0CF0800E11EC0CF04E
:1014A0000AC003F00BC004F0CDEC0BF0C00E11EC41
:1014B0000CF00FC003F010C004F0CDEC0BF081BABB
:1014C00006D00C2A040E0C6402D0010E0C6E0C0423
:1014D000D8A414D00FC0F6FF10C0F7FF380EF56E79
:1014E0000C00010E0F24086E000E1020096E08C0BB
:1014F000F6FF09C0F7FF300EF56E0C00020E0C1857
:10150000D8A414D00FC0F6FF10C0F7FF360EF56E4A
:101510000C00010E0F24086E000E1020096E08C08A
:10152000F6FF09C0F7FF300EF56E0C00030E0C1825
:10153000D8A414D00FC0F6FF10C0F7FF330EF56E1D
:101540000C00010E0F24086E000E1020096E08C05A
:10155000F6FF09C0F7FF350EF56E0C00040E0C18EF
:10156000D8A414D00FC0F6FF10C0F7FF320EF56EEE
:101570000C00010E0F24086E000E1020096E08C02A
:10158000F6FF09C0F7FF300EF56E0C0081B81BD0D6
:101590000B0E0F24086E000E1020096E08C0F6FF17
:1015A00009C0F7FF0800F5CF0EF00E2A0B0E0F242E
:1015B000086E000E1020096E08C0F6FF09C0F7FF84
:1015C0000EC0F5FF0C000B0E0F24086E000E10204D
:1015D000096E08C0F6FF09C0F7FF390E0800F56470
:1015E00028D00A0E0F24086E000E1020096E08C0C5
:1015F000F6FF09C0F7FF0800F5CF0EF00E2A0A0E1D
:101600000F24086E000E1020096E08C0F6FF09C0F6
:10161000F7FF0EC0F5FF0C000B0E0F24086E000E36
:101620001020096E08C0F6FF09C0F7FF300EF56EF6
:101630000C0081B61BD00D0E0F24086E000E10207A
:10164000096E08C0F6FF09C0F7FF0800F5CF0EF0DD
:101650000E2A0D0E0F24086E000E1020096E08C011
:10166000F6FF09C0F7FF0EC0F5FF0C000D0E0F24AA
:10167000086E000E1020096E08C0F6FF09C0F7FFC3
:10168000350E0800F56428D00B0E0F24086E000EEE
:101690001020096E08C0F6FF09C0F7FF0800F5CF5B
:1016A0000EF00E2A0B0E0F24086E000E1020096E8D
:1016B00008C0F6FF09C0F7FF0EC0F5FF0C000D0EC5
:1016C0000F24086E000E1020096E08C0F6FF09C036
:1016D000F7FF300EF56E0C00020E0D18D8A415D0D1
:1016E000010E11EC0CF0800E11EC0CF00AC003F0AE
:1016F0000BC004F0CDEC0BF0C00E11EC0CF00FC0E1
:1017000003F010C004F0CDEC0BF0030E0D18D8A4BC
:10171000BBD4010E11EC0CF0800E11EC0CF0120E8B
:10172000036E100E046ECDEC0BF0C00E11EC0CF03D
:10173000010E036E100E046ECDEC0BF0A5D4849256
:101740008494000E026E140E016EEFEC0BF0848296
:10175000380E11EC0CF0000E026E050E016EEFEC6F
:101760000BF0380E11EC0CF0000E026E010E016E43
:10177000EFEC0BF0380E11EC0CF0080E11EC0CF045
:101780000F0E11EC0CF0010E11EC0CF0380E11ECF8
:101790000CF0800E11EC0CF01200000E076E0FD052
:1017A00007500324056E000E0420066E05C0F6FFE8
:1017B00006C0F7FF0800F55008EC0CF0072A0750A8
:1017C0000324056E000E0420066E05C0F6FF06C059
:1017D000F7FF0800F5500009D8B41200E1D7000E59
:1017E000046E000E036E0DD0000E056E00F000F0CA
:1017F00000F000F000F0052AC70E0564F7D7034A91
:10180000042A0150035C02500458D8B01200ECD7EF
:10181000026E848202501FEC0CF0848484928482D5
:101820001200026E848202501FEC0CF084948492A9
:1018300084821200000EF86E000123EF08F0016EA2
:0618400001C083FF12004D
:020000040020DA
:08000000FFFFFFFFFFFFFFFF00
:020000040030CA
:0E000000FF06181EFF8180FF0FC00FE00F40AB
:00000001FF
